:020000020000FC
:10000000F8E0FEBFFFEFFDBF0FEF10E30AB91DB927
:100010000BB9759A01B902B97FEF60E0EE27DD27D1
:10002000CC27BB271127AA278827669B19C0E0B1D8
:10003000E71301C0FACF0E946E010E9426000E94C1
:100040006E010E946E010E942B0013C07FEFE0B191
:10005000E71759F308957FEFE0B17E17E1F70895B0
:100060000E946E016699E1CF0E946E01669BFECFF1
:1000700000C013950E94750100C00E944D010E94AE
:10008000860000C080E0E7E059980E9469000E9465
:10009000D901599A5A980E9469000E94D9015A9A26
:1000A0005C980E9469000E94D9015C9A75980E9430
:1000B00069000E94D901759A5B980E9469000E94AC
:1000C000D9015B9A58980E9469000E94D901589AF8
:1000D000DBCF83958E1731F00E948E01BA95B6174B
:1000E00019F0089581E00895AA0FAA0FAA0FAA0F88
:1000F000AA0FA095ABB90E9484010E9484010E94BE
:1001000084010E948E010E94860003C0759A0BB97B
:10011000089510FD55C000C00E9458010E94900033
:1001200091E08917A9F093958917C1F093958917E4
:10013000D9F093958917F1F09395891709F1939563
:10014000891701F059980E94C7000E94D901599A55
:100150005A980E94C7000E94D9015A9A5C980E943E
:10016000C7000E94D9015C9A75980E94C7000E943E
:10017000D901759A5B980E94C7000E94D9015B9AC9
:1001800058980E94C7000E94D901589ADBCF0E945C
:10019000A801BA95B61709F00895AA0FAA0FAA0FD9
:1001A000AA0FAA0FA095ABB90E9484010E948401F6
:1001B0000E9484010E94A8010E9486000C943401D0
:1001C0000E9463010E94E40091E08917A9F09395D1
:1001D0008917C1F093958917D9F093958917F1F094
:1001E0009395891709F19395891701F059980E9401
:1001F0001B010E94D901599A5A980E941B010E9422
:10020000D9015A9A5C980E941B010E94D9015C9AFC
:1002100075980E941B010E94D901759A5B980E94F3
:100220001B010E94D9015B9A58980E941B010E94F1
:10023000D901589ADBCF0E949B01BA95B61709F0F5
:100240000895AA0FAA0FAA0FAA0FAA0FA095ABB9DB
:100250000E9484010E9484010E9484010E949B01EB
:100260000E9486000C9434015C980E94E5015C9A1F
:100270005D980E94E5015D9A5E980E94E5015E9A94
:100280005F980E94E5015F9A5E980E94E5015E9A80
:100290005D980E94E5015D9AE7CFBB27AA27C9E0D8
:1002A000D12FB395DC1BE8F7BA95DC0FAD2F08957D
:1002B000BB27AA27C5E0D12FB395DC1BE8F7BA9579
:1002C000DC0FAD2F0895BB27AA27C6E0D12FB39529
:1002D000DC1BE8F7BA95DC0FAD2F089522E33FEF62
:1002E0003A95F1F72A95D9F7089548EC2FEFE0B148
:1002F000E713A1CE669BB4CE3FEF3A95F1F72A956E
:10030000B1F74A9599F7089548EC2FEF3FEF3A95EA
:10031000F1F72A95D9F74A95C1F7089566EF52E0AB
:1003200074980E94B501749A0E94B5015A95C1F75C
:100330006A95A9F7089566EF52E074980E94CD017E
:10034000749A0E94CD015A95C1F76A95A9F708954C
:1003500066EF52E074980E94C101749A0E94C10134
:100360005A95C1F76A95A9F7089524E035E04FE161
:10037000000000004A95E1F73A95C9F72A95B1F7D0
:10038000089524E038E04FE2000000004A95E1F7CC
:100390003A95C9F72A95B1F7089524E035E04AE087
:1003A000000000004A95E1F73A95C9F72A95B1F7A0
:1003B000089520E238EC4AEF000000004A95E1F78A
:1003C0003A95C9F72A95B1F7089529E038EC4AEF34
:1003D000000000004A95E1F73A95C9F72A95B1F770
:0203E00008957E
:00000001FF
